{"contracts/Challenge.sol":{"Challenge1":{"abi":[{"inputs":[{"internalType":"uint256","name":"guess","type":"uint256"}],"name":"claimSeat1","outputs":[],"stateMutability":"nonpayable","type":"function"},{"inputs":[{"internalType":"uint256","name":"guess","type":"uint256"}],"name":"claimSeat2","outputs":[],"stateMutability":"nonpayable","type":"function"}],"evm":{"bytecode":{"linkReferences":{},"object":"608060405234801561001057600080fd5b50610556806100206000396000f3fe608060405234801561001057600080fd5b50600436106100365760003560e01c80632b41a4611461003b578063fbf849f714610050575b600080fd5b61004e61004936600461045d565b610063565b005b61004e61005e36600461045d565b610211565b61ffff6101e95b80821461009b578082111561008a57610083818361048c565b915061006a565b610094828261048c565b905061006a565b8282146100dd5760405162461bcd60e51b815260206004820152600b60248201526a57726f6e6720677565737360a81b60448201526064015b60405180910390fd5b6040516331a9108f60e11b8152600160048201523390730ffa1c6009a45c243840daf01ba5ae548808de9890636352211e90602401602060405180830381865afa15801561012f573d6000803e3d6000fd5b505050506040513d601f19601f8201168201806040525081019061015391906104a5565b6001600160a01b03160361019b5760405162461bcd60e51b815260206004820152600f60248201526e14d9585d081a5cc818db185a5b5959608a1b60448201526064016100d4565b6040516323b872dd60e01b815230600482015233602482015260026044820152730ffa1c6009a45c243840daf01ba5ae548808de98906323b872dd90606401600060405180830381600087803b1580156101f457600080fd5b505af1158015610208573d6000803e3d6000fd5b50505050505050565b6040805160c08101825260098152600f60208201526011918101919091526013606082015260146080820152601760a082015260008060065b8181106102e957600261025d838361048c565b61026791906104d5565b61027190836104f7565b9250848484600681106102865761028661050a565b602002015160ff16036102a55761029e8360016104f7565b91506102e9565b848484600681106102b8576102b861050a565b602002015160ff16106102d7576102d060018461048c565b905061024a565b6102e28360016104f7565b915061024a565b816004146103275760405162461bcd60e51b815260206004820152600b60248201526a57726f6e6720677565737360a81b60448201526064016100d4565b6040516331a9108f60e11b8152600260048201523390730ffa1c6009a45c243840daf01ba5ae548808de9890636352211e90602401602060405180830381865afa158015610379573d6000803e3d6000fd5b505050506040513d601f19601f8201168201806040525081019061039d91906104a5565b6001600160a01b0316036103e55760405162461bcd60e51b815260206004820152600f60248201526e14d9585d081a5cc818db185a5b5959608a1b60448201526064016100d4565b6040516323b872dd60e01b815230600482015233602482015260016044820152730ffa1c6009a45c243840daf01ba5ae548808de98906323b872dd90606401600060405180830381600087803b15801561043e57600080fd5b505af1158015610452573d6000803e3d6000fd5b505050505050505050565b60006020828403121561046f57600080fd5b5035919050565b634e487b7160e01b600052601160045260246000fd5b8181038181111561049f5761049f610476565b92915050565b6000602082840312156104b757600080fd5b81516001600160a01b03811681146104ce57600080fd5b9392505050565b6000826104f257634e487b7160e01b600052601260045260246000fd5b500490565b8082018082111561049f5761049f610476565b634e487b7160e01b600052603260045260246000fdfea2646970667358221220d30cde40b0e1c405500aae3ea7c074b3ca1d654225fbaa2b131f41cfa62ccefd64736f6c63430008130033","opcodes":"PUSH1 0x80 PUSH1 0x40 MSTORE CALLVALUE DUP1 ISZERO PUSH2 0x10 JUMPI PUSH1 0x0 DUP1 REVERT JUMPDEST POP PUSH2 0x556 DUP1 PUSH2 0x20 PUSH1 0x0 CODECOPY PUSH1 0x0 RETURN INVALID PUSH1 0x80 PUSH1 0x40 MSTORE CALLVALUE DUP1 ISZERO PUSH2 0x10 JUMPI PUSH1 0x0 DUP1 REVERT JUMPDEST POP PUSH1 0x4 CALLDATASIZE LT PUSH2 0x36 JUMPI PUSH1 0x0 CALLDATALOAD PUSH1 0xE0 SHR DUP1 PUSH4 0x2B41A461 EQ PUSH2 0x3B JUMPI DUP1 PUSH4 0xFBF849F7 EQ PUSH2 0x50 JUMPI JUMPDEST PUSH1 0x0 DUP1 REVERT JUMPDEST PUSH2 0x4E PUSH2 0x49 CALLDATASIZE PUSH1 0x4 PUSH2 0x45D JUMP JUMPDEST PUSH2 0x63 JUMP JUMPDEST STOP JUMPDEST PUSH2 0x4E PUSH2 0x5E CALLDATASIZE PUSH1 0x4 PUSH2 0x45D JUMP JUMPDEST PUSH2 0x211 JUMP JUMPDEST PUSH2 0xFFFF PUSH2 0x1E9 JUMPDEST DUP1 DUP3 EQ PUSH2 0x9B JUMPI DUP1 DUP3 GT ISZERO PUSH2 0x8A JUMPI PUSH2 0x83 DUP2 DUP4 PUSH2 0x48C JUMP JUMPDEST SWAP2 POP PUSH2 0x6A JUMP JUMPDEST PUSH2 0x94 DUP3 DUP3 PUSH2 0x48C JUMP JUMPDEST SWAP1 POP PUSH2 0x6A JUMP JUMPDEST DUP3 DUP3 EQ PUSH2 0xDD JUMPI PUSH1 0x40 MLOAD PUSH3 0x461BCD PUSH1 0xE5 SHL DUP2 MSTORE PUSH1 0x20 PUSH1 0x4 DUP3 ADD MSTORE PUSH1 0xB PUSH1 0x24 DUP3 ADD MSTORE PUSH11 0x57726F6E67206775657373 PUSH1 0xA8 SHL PUSH1 0x44 DUP3 ADD MSTORE PUSH1 0x64 ADD JUMPDEST PUSH1 0x40 MLOAD DUP1 SWAP2 SUB SWAP1 REVERT JUMPDEST PUSH1 0x40 MLOAD PUSH4 0x31A9108F PUSH1 0xE1 SHL DUP2 MSTORE PUSH1 0x1 PUSH1 0x4 DUP3 ADD MSTORE CALLER SWAP1 PUSH20 0xFFA1C6009A45C243840DAF01BA5AE548808DE98 SWAP1 PUSH4 0x6352211E SWAP1 PUSH1 0x24 ADD PUSH1 0x20 PUSH1 0x40 MLOAD DUP1 DUP4 SUB DUP2 DUP7 GAS STATICCALL ISZERO DUP1 ISZERO PUSH2 0x12F JUMPI RETURNDATASIZE PUSH1 0x0 DUP1 RETURNDATACOPY RETURNDATASIZE PUSH1 0x0 REVERT JUMPDEST POP POP POP POP PUSH1 0x40 MLOAD RETURNDATASIZE PUSH1 0x1F NOT PUSH1 0x1F DUP3 ADD AND DUP3 ADD DUP1 PUSH1 0x40 MSTORE POP DUP2 ADD SWAP1 PUSH2 0x153 SWAP2 SWAP1 PUSH2 0x4A5 JUMP JUMPDEST PUSH1 0x1 PUSH1 0x1 PUSH1 0xA0 SHL SUB AND SUB PUSH2 0x19B JUMPI PUSH1 0x40 MLOAD PUSH3 0x461BCD PUSH1 0xE5 SHL DUP2 MSTORE PUSH1 0x20 PUSH1 0x4 DUP3 ADD MSTORE PUSH1 0xF PUSH1 0x24 DUP3 ADD MSTORE PUSH15 0x14D9585D081A5CC818DB185A5B5959 PUSH1 0x8A SHL PUSH1 0x44 DUP3 ADD MSTORE PUSH1 0x64 ADD PUSH2 0xD4 JUMP JUMPDEST PUSH1 0x40 MLOAD PUSH4 0x23B872DD PUSH1 0xE0 SHL DUP2 MSTORE ADDRESS PUSH1 0x4 DUP3 ADD MSTORE CALLER PUSH1 0x24 DUP3 ADD MSTORE PUSH1 0x2 PUSH1 0x44 DUP3 ADD MSTORE PUSH20 0xFFA1C6009A45C243840DAF01BA5AE548808DE98 SWAP1 PUSH4 0x23B872DD SWAP1 PUSH1 0x64 ADD PUSH1 0x0 PUSH1 0x40 MLOAD DUP1 DUP4 SUB DUP2 PUSH1 0x0 DUP8 DUP1 EXTCODESIZE ISZERO DUP1 ISZERO PUSH2 0x1F4 JUMPI PUSH1 0x0 DUP1 REVERT JUMPDEST POP GAS CALL ISZERO DUP1 ISZERO PUSH2 0x208 JUMPI RETURNDATASIZE PUSH1 0x0 DUP1 RETURNDATACOPY RETURNDATASIZE PUSH1 0x0 REVERT JUMPDEST POP POP POP POP POP POP POP JUMP JUMPDEST PUSH1 0x40 DUP1 MLOAD PUSH1 0xC0 DUP2 ADD DUP3 MSTORE PUSH1 0x9 DUP2 MSTORE PUSH1 0xF PUSH1 0x20 DUP3 ADD MSTORE PUSH1 0x11 SWAP2 DUP2 ADD SWAP2 SWAP1 SWAP2 MSTORE PUSH1 0x13 PUSH1 0x60 DUP3 ADD MSTORE PUSH1 0x14 PUSH1 0x80 DUP3 ADD MSTORE PUSH1 0x17 PUSH1 0xA0 DUP3 ADD MSTORE PUSH1 0x0 DUP1 PUSH1 0x6 JUMPDEST DUP2 DUP2 LT PUSH2 0x2E9 JUMPI PUSH1 0x2 PUSH2 0x25D DUP4 DUP4 PUSH2 0x48C JUMP JUMPDEST PUSH2 0x267 SWAP2 SWAP1 PUSH2 0x4D5 JUMP JUMPDEST PUSH2 0x271 SWAP1 DUP4 PUSH2 0x4F7 JUMP JUMPDEST SWAP3 POP DUP5 DUP5 DUP5 PUSH1 0x6 DUP2 LT PUSH2 0x286 JUMPI PUSH2 0x286 PUSH2 0x50A JUMP JUMPDEST PUSH1 0x20 MUL ADD MLOAD PUSH1 0xFF AND SUB PUSH2 0x2A5 JUMPI PUSH2 0x29E DUP4 PUSH1 0x1 PUSH2 0x4F7 JUMP JUMPDEST SWAP2 POP PUSH2 0x2E9 JUMP JUMPDEST DUP5 DUP5 DUP5 PUSH1 0x6 DUP2 LT PUSH2 0x2B8 JUMPI PUSH2 0x2B8 PUSH2 0x50A JUMP JUMPDEST PUSH1 0x20 MUL ADD MLOAD PUSH1 0xFF AND LT PUSH2 0x2D7 JUMPI PUSH2 0x2D0 PUSH1 0x1 DUP5 PUSH2 0x48C JUMP JUMPDEST SWAP1 POP PUSH2 0x24A JUMP JUMPDEST PUSH2 0x2E2 DUP4 PUSH1 0x1 PUSH2 0x4F7 JUMP JUMPDEST SWAP2 POP PUSH2 0x24A JUMP JUMPDEST DUP2 PUSH1 0x4 EQ PUSH2 0x327 JUMPI PUSH1 0x40 MLOAD PUSH3 0x461BCD PUSH1 0xE5 SHL DUP2 MSTORE PUSH1 0x20 PUSH1 0x4 DUP3 ADD MSTORE PUSH1 0xB PUSH1 0x24 DUP3 ADD MSTORE PUSH11 0x57726F6E67206775657373 PUSH1 0xA8 SHL PUSH1 0x44 DUP3 ADD MSTORE PUSH1 0x64 ADD PUSH2 0xD4 JUMP JUMPDEST PUSH1 0x40 MLOAD PUSH4 0x31A9108F PUSH1 0xE1 SHL DUP2 MSTORE PUSH1 0x2 PUSH1 0x4 DUP3 ADD MSTORE CALLER SWAP1 PUSH20 0xFFA1C6009A45C243840DAF01BA5AE548808DE98 SWAP1 PUSH4 0x6352211E SWAP1 PUSH1 0x24 ADD PUSH1 0x20 PUSH1 0x40 MLOAD DUP1 DUP4 SUB DUP2 DUP7 GAS STATICCALL ISZERO DUP1 ISZERO PUSH2 0x379 JUMPI RETURNDATASIZE PUSH1 0x0 DUP1 RETURNDATACOPY RETURNDATASIZE PUSH1 0x0 REVERT JUMPDEST POP POP POP POP PUSH1 0x40 MLOAD RETURNDATASIZE PUSH1 0x1F NOT PUSH1 0x1F DUP3 ADD AND DUP3 ADD DUP1 PUSH1 0x40 MSTORE POP DUP2 ADD SWAP1 PUSH2 0x39D SWAP2 SWAP1 PUSH2 0x4A5 JUMP JUMPDEST PUSH1 0x1 PUSH1 0x1 PUSH1 0xA0 SHL SUB AND SUB PUSH2 0x3E5 JUMPI PUSH1 0x40 MLOAD PUSH3 0x461BCD PUSH1 0xE5 SHL DUP2 MSTORE PUSH1 0x20 PUSH1 0x4 DUP3 ADD MSTORE PUSH1 0xF PUSH1 0x24 DUP3 ADD MSTORE PUSH15 0x14D9585D081A5CC818DB185A5B5959 PUSH1 0x8A SHL PUSH1 0x44 DUP3 ADD MSTORE PUSH1 0x64 ADD PUSH2 0xD4 JUMP JUMPDEST PUSH1 0x40 MLOAD PUSH4 0x23B872DD PUSH1 0xE0 SHL DUP2 MSTORE ADDRESS PUSH1 0x4 DUP3 ADD MSTORE CALLER PUSH1 0x24 DUP3 ADD MSTORE PUSH1 0x1 PUSH1 0x44 DUP3 ADD MSTORE PUSH20 0xFFA1C6009A45C243840DAF01BA5AE548808DE98 SWAP1 PUSH4 0x23B872DD SWAP1 PUSH1 0x64 ADD PUSH1 0x0 PUSH1 0x40 MLOAD DUP1 DUP4 SUB DUP2 PUSH1 0x0 DUP8 DUP1 EXTCODESIZE ISZERO DUP1 ISZERO PUSH2 0x43E JUMPI PUSH1 0x0 DUP1 REVERT JUMPDEST POP GAS CALL ISZERO DUP1 ISZERO PUSH2 0x452 JUMPI RETURNDATASIZE PUSH1 0x0 DUP1 RETURNDATACOPY RETURNDATASIZE PUSH1 0x0 REVERT JUMPDEST POP POP POP POP POP POP POP POP POP JUMP JUMPDEST PUSH1 0x0 PUSH1 0x20 DUP3 DUP5 SUB SLT ISZERO PUSH2 0x46F JUMPI PUSH1 0x0 DUP1 REVERT JUMPDEST POP CALLDATALOAD SWAP2 SWAP1 POP JUMP JUMPDEST PUSH4 0x4E487B71 PUSH1 0xE0 SHL PUSH1 0x0 MSTORE PUSH1 0x11 PUSH1 0x4 MSTORE PUSH1 0x24 PUSH1 0x0 REVERT JUMPDEST DUP2 DUP2 SUB DUP2 DUP2 GT ISZERO PUSH2 0x49F JUMPI PUSH2 0x49F PUSH2 0x476 JUMP JUMPDEST SWAP3 SWAP2 POP POP JUMP JUMPDEST PUSH1 0x0 PUSH1 0x20 DUP3 DUP5 SUB SLT ISZERO PUSH2 0x4B7 JUMPI PUSH1 0x0 DUP1 REVERT JUMPDEST DUP2 MLOAD PUSH1 0x1 PUSH1 0x1 PUSH1 0xA0 SHL SUB DUP2 AND DUP2 EQ PUSH2 0x4CE JUMPI PUSH1 0x0 DUP1 REVERT JUMPDEST SWAP4 SWAP3 POP POP POP JUMP JUMPDEST PUSH1 0x0 DUP3 PUSH2 0x4F2 JUMPI PUSH4 0x4E487B71 PUSH1 0xE0 SHL PUSH1 0x0 MSTORE PUSH1 0x12 PUSH1 0x4 MSTORE PUSH1 0x24 PUSH1 0x0 REVERT JUMPDEST POP DIV SWAP1 JUMP JUMPDEST DUP1 DUP3 ADD DUP1 DUP3 GT ISZERO PUSH2 0x49F JUMPI PUSH2 0x49F PUSH2 0x476 JUMP JUMPDEST PUSH4 0x4E487B71 PUSH1 0xE0 SHL PUSH1 0x0 MSTORE PUSH1 0x32 PUSH1 0x4 MSTORE PUSH1 0x24 PUSH1 0x0 REVERT INVALID LOG2 PUSH5 0x6970667358 0x22 SLT KECCAK256 0xD3 0xC 0xDE BLOCKHASH 0xB0 0xE1 0xC4 SDIV POP EXP 0xAE RETURNDATACOPY 0xA7 0xC0 PUSH21 0xB3CA1D654225FBAA2B131F41CFA62CCEFD64736F6C PUSH4 0x43000813 STOP CALLER "},"methodIdentifiers":{"claimSeat1(uint256)":"fbf849f7","claimSeat2(uint256)":"2b41a461"}}}}}