{
  "_format": "hh-sol-artifact-1",
  "contractName": "Lottery",
  "sourceName": "contracts/Lottery.sol",
  "abi": [
    {
      "anonymous": false,
      "inputs": [
        {
          "indexed": true,
          "internalType": "address",
          "name": "previousOwner",
          "type": "address"
        },
        {
          "indexed": true,
          "internalType": "address",
          "name": "newOwner",
          "type": "address"
        }
      ],
      "name": "OwnershipTransferred",
      "type": "event"
    },
    {
      "anonymous": false,
      "inputs": [
        {
          "indexed": true,
          "internalType": "address",
          "name": "player",
          "type": "address"
        }
      ],
      "name": "PlayerEntered",
      "type": "event"
    },
    {
      "anonymous": false,
      "inputs": [
        {
          "indexed": true,
          "internalType": "address",
          "name": "winner",
          "type": "address"
        },
        {
          "indexed": false,
          "internalType": "uint256",
          "name": "amount",
          "type": "uint256"
        }
      ],
      "name": "WinnerPicked",
      "type": "event"
    },
    {
      "inputs": [],
      "name": "enter",
      "outputs": [],
      "stateMutability": "nonpayable",
      "type": "function"
    },
    {
      "inputs": [],
      "name": "getPlayers",
      "outputs": [
        {
          "internalType": "address[]",
          "name": "",
          "type": "address[]"
        }
      ],
      "stateMutability": "view",
      "type": "function"
    },
    {
      "inputs": [
        {
          "internalType": "address",
          "name": "",
          "type": "address"
        }
      ],
      "name": "hasEntered",
      "outputs": [
        {
          "internalType": "bool",
          "name": "",
          "type": "bool"
        }
      ],
      "stateMutability": "view",
      "type": "function"
    },
    {
      "inputs": [],
      "name": "lastWinner",
      "outputs": [
        {
          "internalType": "address",
          "name": "",
          "type": "address"
        }
      ],
      "stateMutability": "view",
      "type": "function"
    },
    {
      "inputs": [],
      "name": "owner",
      "outputs": [
        {
          "internalType": "address",
          "name": "",
          "type": "address"
        }
      ],
      "stateMutability": "view",
      "type": "function"
    },
    {
      "inputs": [],
      "name": "pickWinner",
      "outputs": [],
      "stateMutability": "nonpayable",
      "type": "function"
    },
    {
      "inputs": [
        {
          "internalType": "uint256",
          "name": "",
          "type": "uint256"
        }
      ],
      "name": "players",
      "outputs": [
        {
          "internalType": "address",
          "name": "",
          "type": "address"
        }
      ],
      "stateMutability": "view",
      "type": "function"
    },
    {
      "inputs": [],
      "name": "renounceOwnership",
      "outputs": [],
      "stateMutability": "nonpayable",
      "type": "function"
    },
    {
      "inputs": [],
      "name": "setWinningPrize",
      "outputs": [],
      "stateMutability": "payable",
      "type": "function"
    },
    {
      "inputs": [
        {
          "internalType": "address",
          "name": "newOwner",
          "type": "address"
        }
      ],
      "name": "transferOwnership",
      "outputs": [],
      "stateMutability": "nonpayable",
      "type": "function"
    },
    {
      "inputs": [],
      "name": "winningPrize",
      "outputs": [
        {
          "internalType": "uint256",
          "name": "",
          "type": "uint256"
        }
      ],
      "stateMutability": "view",
      "type": "function"
    }
  ],
  "bytecode": "0x608060405234801561001057600080fd5b5061001a3361001f565b61006f565b600080546001600160a01b038381166001600160a01b0319831681178455604051919092169283917f8be0079c531659141344cd1fd0a4f28419497f9722a3daafe3b4186f6b6457e09190a35050565b6109508061007e6000396000f3fe60806040526004361061009c5760003560e01c80638b5b9ccc116100645780638b5b9ccc1461013e5780638da5cb5b14610160578063e97dcb6214610192578063f2fde38b146101a7578063f71d96cb146101c7578063fe188184146101e757600080fd5b80630e09144e146100a157806324d70dea146100ab5780635d495aea146100f0578063715018a61461010557806379b03c7a1461011a575b600080fd5b6100a9610207565b005b3480156100b757600080fd5b506100db6100c63660046107d5565b60046020526000908152604090205460ff1681565b60405190151581526020015b60405180910390f35b3480156100fc57600080fd5b506100a96102d1565b34801561011157600080fd5b506100a96104ed565b34801561012657600080fd5b5061013060035481565b6040519081526020016100e7565b34801561014a57600080fd5b50610153610501565b6040516100e79190610805565b34801561016c57600080fd5b506000546001600160a01b03165b6040516001600160a01b0390911681526020016100e7565b34801561019e57600080fd5b506100a9610563565b3480156101b357600080fd5b506100a96101c23660046107d5565b610656565b3480156101d357600080fd5b5061017a6101e2366004610852565b6106cf565b3480156101f357600080fd5b5060025461017a906001600160a01b031681565b61020f6106f9565b6003541561026f5760405162461bcd60e51b815260206004820152602260248201527f57696e6e696e67207072697a652068617320616c7265616479206265656e2073604482015261195d60f21b60648201526084015b60405180910390fd5b600034116102cb5760405162461bcd60e51b8152602060048201526024808201527f496e697469616c207072697a65206d75737420626520677265617465722074686044820152630616e20360e41b6064820152608401610266565b34600355565b6102d96106f9565b6001546103285760405162461bcd60e51b815260206004820152601960248201527f4e6f20706c617965727320696e20746865206c6f7474657279000000000000006044820152606401610266565b6000600354116103725760405162461bcd60e51b815260206004820152601560248201527415da5b9b9a5b99c81c1c9a5e99481b9bdd081cd95d605a1b6044820152606401610266565b60004442600160405160200161038a9392919061086b565b60408051601f198184030181529190528051602090910120600180549192506000916103b690846108bb565b815481106103c6576103c66108dd565b60009182526020822001546003546040516001600160a01b039092169350839281156108fc029290818181858888f1935050505015801561040b573d6000803e3d6000fd5b5060005b6001548110156104785760006004600060018481548110610432576104326108dd565b6000918252602080832091909101546001600160a01b031683528201929092526040019020805460ff191691151591909117905580610470816108f3565b91505061040f565b50610485600160006107a3565b600060038190556040519081526001600160a01b038216907f64791dbae5677392ba76761a5273633cec8f1d9d8cfe808da7bac6ef16a880be9060200160405180910390a2600280546001600160a01b0319166001600160a01b039290921691909117905550565b6104f56106f9565b6104ff6000610753565b565b6060600180548060200260200160405190810160405280929190818152602001828054801561055957602002820191906000526020600020905b81546001600160a01b0316815260019091019060200180831161053b575b5050505050905090565b3360009081526004602052604090205460ff16156105cf5760405162461bcd60e51b8152602060048201526024808201527f596f75206861766520616c726561647920656e746572656420746865206c6f746044820152637465727960e01b6064820152608401610266565b60018054808201825560009182527fb10e2d527612073b26eecdfd717e6a320cf44b4afac2b0732d9fcbe2b7fa0cf60180546001600160a01b0319163390811790915560405190917f4d999952f9aa655a216ee2df5968ca0e670e9582ddc96cfe7d8168114b8ca37f91a2336000908152600460205260409020805460ff19166001179055565b61065e6106f9565b6001600160a01b0381166106c35760405162461bcd60e51b815260206004820152602660248201527f4f776e61626c653a206e6577206f776e657220697320746865207a65726f206160448201526564647265737360d01b6064820152608401610266565b6106cc81610753565b50565b600181815481106106df57600080fd5b6000918252602090912001546001600160a01b0316905081565b6000546001600160a01b031633146104ff5760405162461bcd60e51b815260206004820181905260248201527f4f776e61626c653a2063616c6c6572206973206e6f7420746865206f776e65726044820152606401610266565b600080546001600160a01b038381166001600160a01b0319831681178455604051919092169283917f8be0079c531659141344cd1fd0a4f28419497f9722a3daafe3b4186f6b6457e09190a35050565b50805460008255906000526020600020908101906106cc91905b808211156107d157600081556001016107bd565b5090565b6000602082840312156107e757600080fd5b81356001600160a01b03811681146107fe57600080fd5b9392505050565b6020808252825182820181905260009190848201906040850190845b818110156108465783516001600160a01b031683529284019291840191600101610821565b50909695505050505050565b60006020828403121561086457600080fd5b5035919050565b838152600060208481840152604083018454856000528260002060005b828110156108ad5781546001600160a01b031684529284019260019182019101610888565b509198975050505050505050565b6000826108d857634e487b7160e01b600052601260045260246000fd5b500690565b634e487b7160e01b600052603260045260246000fd5b60006001820161091357634e487b7160e01b600052601160045260246000fd5b506001019056fea26469706673582212201a9b035382bc84f552155ba5f6ddfb783113f3f4e268f4a423308c6f67efad9064736f6c63430008130033",
  "linkReferences": {},
  "deployedLinkReferences": {}
}