{
  "_format": "hh-sol-artifact-1",
  "contractName": "Challenge1",
  "sourceName": "contracts/Challenge.sol",
  "abi": [
    {
      "inputs": [
        {
          "internalType": "uint256",
          "name": "guess",
          "type": "uint256"
        }
      ],
      "name": "claimSeat1",
      "outputs": [],
      "stateMutability": "nonpayable",
      "type": "function"
    },
    {
      "inputs": [
        {
          "internalType": "uint256",
          "name": "guess",
          "type": "uint256"
        }
      ],
      "name": "claimSeat2",
      "outputs": [],
      "stateMutability": "nonpayable",
      "type": "function"
    }
  ],
  "bytecode": "0x608060405234801561001057600080fd5b50610556806100206000396000f3fe608060405234801561001057600080fd5b50600436106100365760003560e01c80632b41a4611461003b578063fbf849f714610050575b600080fd5b61004e61004936600461045d565b610063565b005b61004e61005e36600461045d565b610211565b61ffff6101e95b80821461009b578082111561008a57610083818361048c565b915061006a565b610094828261048c565b905061006a565b8282146100dd5760405162461bcd60e51b815260206004820152600b60248201526a57726f6e6720677565737360a81b60448201526064015b60405180910390fd5b6040516331a9108f60e11b8152600160048201523390730ffa1c6009a45c243840daf01ba5ae548808de9890636352211e90602401602060405180830381865afa15801561012f573d6000803e3d6000fd5b505050506040513d601f19601f8201168201806040525081019061015391906104a5565b6001600160a01b03160361019b5760405162461bcd60e51b815260206004820152600f60248201526e14d9585d081a5cc818db185a5b5959608a1b60448201526064016100d4565b6040516323b872dd60e01b815230600482015233602482015260026044820152730ffa1c6009a45c243840daf01ba5ae548808de98906323b872dd90606401600060405180830381600087803b1580156101f457600080fd5b505af1158015610208573d6000803e3d6000fd5b50505050505050565b6040805160c08101825260098152600f60208201526011918101919091526013606082015260146080820152601760a082015260008060065b8181106102e957600261025d838361048c565b61026791906104d5565b61027190836104f7565b9250848484600681106102865761028661050a565b602002015160ff16036102a55761029e8360016104f7565b91506102e9565b848484600681106102b8576102b861050a565b602002015160ff16106102d7576102d060018461048c565b905061024a565b6102e28360016104f7565b915061024a565b816004146103275760405162461bcd60e51b815260206004820152600b60248201526a57726f6e6720677565737360a81b60448201526064016100d4565b6040516331a9108f60e11b8152600260048201523390730ffa1c6009a45c243840daf01ba5ae548808de9890636352211e90602401602060405180830381865afa158015610379573d6000803e3d6000fd5b505050506040513d601f19601f8201168201806040525081019061039d91906104a5565b6001600160a01b0316036103e55760405162461bcd60e51b815260206004820152600f60248201526e14d9585d081a5cc818db185a5b5959608a1b60448201526064016100d4565b6040516323b872dd60e01b815230600482015233602482015260016044820152730ffa1c6009a45c243840daf01ba5ae548808de98906323b872dd90606401600060405180830381600087803b15801561043e57600080fd5b505af1158015610452573d6000803e3d6000fd5b505050505050505050565b60006020828403121561046f57600080fd5b5035919050565b634e487b7160e01b600052601160045260246000fd5b8181038181111561049f5761049f610476565b92915050565b6000602082840312156104b757600080fd5b81516001600160a01b03811681146104ce57600080fd5b9392505050565b6000826104f257634e487b7160e01b600052601260045260246000fd5b500490565b8082018082111561049f5761049f610476565b634e487b7160e01b600052603260045260246000fdfea2646970667358221220d30cde40b0e1c405500aae3ea7c074b3ca1d654225fbaa2b131f41cfa62ccefd64736f6c63430008130033",
  "linkReferences": {},
  "deployedLinkReferences": {}
}